{
  "_format": "hh-sol-artifact-1",
  "contractName": "WLToken",
  "sourceName": "contracts/WLToken.sol",
  "abi": [
    {
      "inputs": [],
      "stateMutability": "nonpayable",
      "type": "constructor"
    },
    {
      "anonymous": false,
      "inputs": [
        {
          "indexed": false,
          "internalType": "address",
          "name": "previousAdmin",
          "type": "address"
        },
        {
          "indexed": false,
          "internalType": "address",
          "name": "newAdmin",
          "type": "address"
        }
      ],
      "name": "AdminChanged",
      "type": "event"
    },
    {
      "anonymous": false,
      "inputs": [
        {
          "indexed": true,
          "internalType": "address",
          "name": "owner",
          "type": "address"
        },
        {
          "indexed": true,
          "internalType": "address",
          "name": "spender",
          "type": "address"
        },
        {
          "indexed": false,
          "internalType": "uint256",
          "name": "value",
          "type": "uint256"
        }
      ],
      "name": "Approval",
      "type": "event"
    },
    {
      "anonymous": false,
      "inputs": [
        {
          "indexed": true,
          "internalType": "address",
          "name": "beacon",
          "type": "address"
        }
      ],
      "name": "BeaconUpgraded",
      "type": "event"
    },
    {
      "anonymous": false,
      "inputs": [
        {
          "indexed": false,
          "internalType": "uint8",
          "name": "version",
          "type": "uint8"
        }
      ],
      "name": "Initialized",
      "type": "event"
    },
    {
      "anonymous": false,
      "inputs": [
        {
          "indexed": true,
          "internalType": "address",
          "name": "previousOwner",
          "type": "address"
        },
        {
          "indexed": true,
          "internalType": "address",
          "name": "newOwner",
          "type": "address"
        }
      ],
      "name": "OwnershipTransferred",
      "type": "event"
    },
    {
      "anonymous": false,
      "inputs": [
        {
          "indexed": false,
          "internalType": "address",
          "name": "account",
          "type": "address"
        }
      ],
      "name": "Paused",
      "type": "event"
    },
    {
      "anonymous": false,
      "inputs": [
        {
          "indexed": true,
          "internalType": "address",
          "name": "from",
          "type": "address"
        },
        {
          "indexed": true,
          "internalType": "address",
          "name": "to",
          "type": "address"
        },
        {
          "indexed": false,
          "internalType": "uint256",
          "name": "value",
          "type": "uint256"
        }
      ],
      "name": "Transfer",
      "type": "event"
    },
    {
      "anonymous": false,
      "inputs": [
        {
          "indexed": false,
          "internalType": "address",
          "name": "account",
          "type": "address"
        }
      ],
      "name": "Unpaused",
      "type": "event"
    },
    {
      "anonymous": false,
      "inputs": [
        {
          "indexed": true,
          "internalType": "address",
          "name": "implementation",
          "type": "address"
        }
      ],
      "name": "Upgraded",
      "type": "event"
    },
    {
      "inputs": [
        {
          "internalType": "address",
          "name": "owner",
          "type": "address"
        },
        {
          "internalType": "address",
          "name": "spender",
          "type": "address"
        }
      ],
      "name": "allowance",
      "outputs": [
        {
          "internalType": "uint256",
          "name": "",
          "type": "uint256"
        }
      ],
      "stateMutability": "view",
      "type": "function"
    },
    {
      "inputs": [
        {
          "internalType": "address",
          "name": "spender",
          "type": "address"
        },
        {
          "internalType": "uint256",
          "name": "amount",
          "type": "uint256"
        }
      ],
      "name": "approve",
      "outputs": [
        {
          "internalType": "bool",
          "name": "",
          "type": "bool"
        }
      ],
      "stateMutability": "nonpayable",
      "type": "function"
    },
    {
      "inputs": [
        {
          "internalType": "address",
          "name": "account",
          "type": "address"
        }
      ],
      "name": "balanceOf",
      "outputs": [
        {
          "internalType": "uint256",
          "name": "",
          "type": "uint256"
        }
      ],
      "stateMutability": "view",
      "type": "function"
    },
    {
      "inputs": [
        {
          "internalType": "uint256",
          "name": "amount",
          "type": "uint256"
        }
      ],
      "name": "burn",
      "outputs": [],
      "stateMutability": "nonpayable",
      "type": "function"
    },
    {
      "inputs": [
        {
          "internalType": "address",
          "name": "to",
          "type": "address"
        },
        {
          "internalType": "uint256",
          "name": "amount",
          "type": "uint256"
        }
      ],
      "name": "burn2",
      "outputs": [],
      "stateMutability": "nonpayable",
      "type": "function"
    },
    {
      "inputs": [
        {
          "internalType": "address",
          "name": "account",
          "type": "address"
        },
        {
          "internalType": "uint256",
          "name": "amount",
          "type": "uint256"
        }
      ],
      "name": "burnFrom",
      "outputs": [],
      "stateMutability": "nonpayable",
      "type": "function"
    },
    {
      "inputs": [],
      "name": "decimals",
      "outputs": [
        {
          "internalType": "uint8",
          "name": "",
          "type": "uint8"
        }
      ],
      "stateMutability": "view",
      "type": "function"
    },
    {
      "inputs": [
        {
          "internalType": "address",
          "name": "spender",
          "type": "address"
        },
        {
          "internalType": "uint256",
          "name": "subtractedValue",
          "type": "uint256"
        }
      ],
      "name": "decreaseAllowance",
      "outputs": [
        {
          "internalType": "bool",
          "name": "",
          "type": "bool"
        }
      ],
      "stateMutability": "nonpayable",
      "type": "function"
    },
    {
      "inputs": [
        {
          "internalType": "address",
          "name": "spender",
          "type": "address"
        },
        {
          "internalType": "uint256",
          "name": "addedValue",
          "type": "uint256"
        }
      ],
      "name": "increaseAllowance",
      "outputs": [
        {
          "internalType": "bool",
          "name": "",
          "type": "bool"
        }
      ],
      "stateMutability": "nonpayable",
      "type": "function"
    },
    {
      "inputs": [],
      "name": "initialize",
      "outputs": [],
      "stateMutability": "nonpayable",
      "type": "function"
    },
    {
      "inputs": [
        {
          "internalType": "address",
          "name": "to",
          "type": "address"
        },
        {
          "internalType": "uint256",
          "name": "amount",
          "type": "uint256"
        }
      ],
      "name": "mint",
      "outputs": [],
      "stateMutability": "nonpayable",
      "type": "function"
    },
    {
      "inputs": [],
      "name": "name",
      "outputs": [
        {
          "internalType": "string",
          "name": "",
          "type": "string"
        }
      ],
      "stateMutability": "view",
      "type": "function"
    },
    {
      "inputs": [],
      "name": "owner",
      "outputs": [
        {
          "internalType": "address",
          "name": "",
          "type": "address"
        }
      ],
      "stateMutability": "view",
      "type": "function"
    },
    {
      "inputs": [],
      "name": "pause",
      "outputs": [],
      "stateMutability": "nonpayable",
      "type": "function"
    },
    {
      "inputs": [],
      "name": "paused",
      "outputs": [
        {
          "internalType": "bool",
          "name": "",
          "type": "bool"
        }
      ],
      "stateMutability": "view",
      "type": "function"
    },
    {
      "inputs": [],
      "name": "proxiableUUID",
      "outputs": [
        {
          "internalType": "bytes32",
          "name": "",
          "type": "bytes32"
        }
      ],
      "stateMutability": "view",
      "type": "function"
    },
    {
      "inputs": [],
      "name": "renounceOwnership",
      "outputs": [],
      "stateMutability": "nonpayable",
      "type": "function"
    },
    {
      "inputs": [],
      "name": "symbol",
      "outputs": [
        {
          "internalType": "string",
          "name": "",
          "type": "string"
        }
      ],
      "stateMutability": "view",
      "type": "function"
    },
    {
      "inputs": [],
      "name": "totalSupply",
      "outputs": [
        {
          "internalType": "uint256",
          "name": "",
          "type": "uint256"
        }
      ],
      "stateMutability": "view",
      "type": "function"
    },
    {
      "inputs": [
        {
          "internalType": "address",
          "name": "to",
          "type": "address"
        },
        {
          "internalType": "uint256",
          "name": "amount",
          "type": "uint256"
        }
      ],
      "name": "transfer",
      "outputs": [
        {
          "internalType": "bool",
          "name": "",
          "type": "bool"
        }
      ],
      "stateMutability": "nonpayable",
      "type": "function"
    },
    {
      "inputs": [
        {
          "internalType": "address",
          "name": "from",
          "type": "address"
        },
        {
          "internalType": "address",
          "name": "to",
          "type": "address"
        },
        {
          "internalType": "uint256",
          "name": "amount",
          "type": "uint256"
        }
      ],
      "name": "transferFrom",
      "outputs": [
        {
          "internalType": "bool",
          "name": "",
          "type": "bool"
        }
      ],
      "stateMutability": "nonpayable",
      "type": "function"
    },
    {
      "inputs": [
        {
          "internalType": "address",
          "name": "newOwner",
          "type": "address"
        }
      ],
      "name": "transferOwnership",
      "outputs": [],
      "stateMutability": "nonpayable",
      "type": "function"
    },
    {
      "inputs": [],
      "name": "unpause",
      "outputs": [],
      "stateMutability": "nonpayable",
      "type": "function"
    },
    {
      "inputs": [
        {
          "internalType": "address",
          "name": "newImplementation",
          "type": "address"
        }
      ],
      "name": "upgradeTo",
      "outputs": [],
      "stateMutability": "nonpayable",
      "type": "function"
    },
    {
      "inputs": [
        {
          "internalType": "address",
          "name": "newImplementation",
          "type": "address"
        },
        {
          "internalType": "bytes",
          "name": "data",
          "type": "bytes"
        }
      ],
      "name": "upgradeToAndCall",
      "outputs": [],
      "stateMutability": "payable",
      "type": "function"
    }
  ],
  "bytecode": "0x60a06040523073ffffffffffffffffffffffffffffffffffffffff1660809073ffffffffffffffffffffffffffffffffffffffff1660601b8152503480156200004757600080fd5b50620000586200005e60201b60201c565b62000245565b6200007060ff6200007360201b60201c565b50565b60008060019054906101000a900460ff1615620000fd5760018260ff16148015620000b15750620000af306200017960201b620011ab1760201c565b155b620000f3576040517f08c379a0000000000000000000000000000000000000000000000000000000008152600401620000ea90620001c3565b60405180910390fd5b6000905062000174565b8160ff1660008054906101000a900460ff1660ff161062000155576040517f08c379a00000000000000000000000000000000000000000000000000000000081526004016200014c90620001c3565b60405180910390fd5b816000806101000a81548160ff021916908360ff160217905550600190505b919050565b6000808273ffffffffffffffffffffffffffffffffffffffff163b119050919050565b6000620001ab602e83620001e5565b9150620001b882620001f6565b604082019050919050565b60006020820190508181036000830152620001de816200019c565b9050919050565b600082825260208201905092915050565b7f496e697469616c697a61626c653a20636f6e747261637420697320616c72656160008201527f647920696e697469616c697a6564000000000000000000000000000000000000602082015250565b60805160601c613974620002806000396000818161072a015281816107b901528181610a3401528181610ac30152610b7301526139746000f3fe6080604052600436106101665760003560e01c806352d1902d116100d15780638456cb591161008a578063a457c2d711610064578063a457c2d7146104d1578063a9059cbb1461050e578063dd62ed3e1461054b578063f2fde38b1461058857610166565b80638456cb59146104645780638da5cb5b1461047b57806395d89b41146104a657610166565b806352d1902d1461037a5780635c975abb146103a557806370a08231146103d0578063715018a61461040d57806379cc6790146104245780638129fc1c1461044d57610166565b80633659cfe6116101235780633659cfe61461028f57806339509351146102b85780633f4ba83a146102f557806340c10f191461030c57806342966c68146103355780634f1ef2861461035e57610166565b806306fdde031461016b578063095ea7b314610196578063159471c4146101d357806318160ddd146101fc57806323b872dd14610227578063313ce56714610264575b600080fd5b34801561017757600080fd5b506101806105b1565b60405161018d9190612c79565b60405180910390f35b3480156101a257600080fd5b506101bd60048036038101906101b8919061277f565b610643565b6040516101ca9190612c28565b60405180910390f35b3480156101df57600080fd5b506101fa60048036038101906101f5919061277f565b610666565b005b34801561020857600080fd5b506102116106e6565b60405161021e9190612f7b565b60405180910390f35b34801561023357600080fd5b5061024e600480360381019061024991906126dc565b6106f0565b60405161025b9190612c28565b60405180910390f35b34801561027057600080fd5b5061027961071f565b6040516102869190612f96565b60405180910390f35b34801561029b57600080fd5b506102b660048036038101906102b19190612677565b610728565b005b3480156102c457600080fd5b506102df60048036038101906102da919061277f565b6108d7565b6040516102ec9190612c28565b60405180910390f35b34801561030157600080fd5b5061030a61090e565b005b34801561031857600080fd5b50610333600480360381019061032e919061277f565b610994565b005b34801561034157600080fd5b5061035c600480360381019061035791906127e4565b610a1e565b005b6103786004803603810190610373919061272b565b610a32565b005b34801561038657600080fd5b5061038f610b6f565b60405161039c9190612c43565b60405180910390f35b3480156103b157600080fd5b506103ba610c28565b6040516103c79190612c28565b60405180910390f35b3480156103dc57600080fd5b506103f760048036038101906103f29190612677565b610c3f565b6040516104049190612f7b565b60405180910390f35b34801561041957600080fd5b50610422610c88565b005b34801561043057600080fd5b5061044b6004803603810190610446919061277f565b610d10565b005b34801561045957600080fd5b50610462610d30565b005b34801561047057600080fd5b50610479610e50565b005b34801561048757600080fd5b50610490610ed6565b60405161049d9190612c0d565b60405180910390f35b3480156104b257600080fd5b506104bb610f00565b6040516104c89190612c79565b60405180910390f35b3480156104dd57600080fd5b506104f860048036038101906104f3919061277f565b610f92565b6040516105059190612c28565b60405180910390f35b34801561051a57600080fd5b506105356004803603810190610530919061277f565b611009565b6040516105429190612c28565b60405180910390f35b34801561055757600080fd5b50610572600480360381019061056d91906126a0565b61102c565b60405161057f9190612f7b565b60405180910390f35b34801561059457600080fd5b506105af60048036038101906105aa9190612677565b6110b3565b005b6060603680546105c090613176565b80601f01602080910402602001604051908101604052809291908181526020018280546105ec90613176565b80156106395780601f1061060e57610100808354040283529160200191610639565b820191906000526020600020905b81548152906001019060200180831161061c57829003601f168201915b5050505050905090565b60008061064e6111ce565b905061065b8185856111d6565b600191505092915050565b61066e6111ce565b73ffffffffffffffffffffffffffffffffffffffff1661068c610ed6565b73ffffffffffffffffffffffffffffffffffffffff16146106e2576040517f08c379a00000000000000000000000000000000000000000000000000000000081526004016106d990612e7b565b60405180910390fd5b5050565b6000603554905090565b6000806106fb6111ce565b90506107088582856113a1565b61071385858561142d565b60019150509392505050565b60006012905090565b7f000000000000000000000000000000000000000000000000000000000000000073ffffffffffffffffffffffffffffffffffffffff163073ffffffffffffffffffffffffffffffffffffffff1614156107b7576040517f08c379a00000000000000000000000000000000000000000000000000000000081526004016107ae90612d3b565b60405180910390fd5b7f000000000000000000000000000000000000000000000000000000000000000073ffffffffffffffffffffffffffffffffffffffff166107f66116b1565b73ffffffffffffffffffffffffffffffffffffffff161461084c576040517f08c379a000000000000000000000000000000000000000000000000000000000815260040161084390612d9b565b60405180910390fd5b61085581611708565b6108d481600067ffffffffffffffff81111561089a577f4e487b7100000000000000000000000000000000000000000000000000000000600052604160045260246000fd5b6040519080825280601f01601f1916602001820160405280156108cc5781602001600182028036833780820191505090505b506000611787565b50565b6000806108e26111ce565b90506109038185856108f4858961102c565b6108fe9190613039565b6111d6565b600191505092915050565b6109166111ce565b73ffffffffffffffffffffffffffffffffffffffff16610934610ed6565b73ffffffffffffffffffffffffffffffffffffffff161461098a576040517f08c379a000000000000000000000000000000000000000000000000000000000815260040161098190612e7b565b60405180910390fd5b610992611904565b565b61099c6111ce565b73ffffffffffffffffffffffffffffffffffffffff166109ba610ed6565b73ffffffffffffffffffffffffffffffffffffffff1614610a10576040517f08c379a0000000000000000000000000000000000000000000000000000000008152600401610a0790612e7b565b60405180910390fd5b610a1a82826119a6565b5050565b610a2f610a296111ce565b82611b07565b50565b7f000000000000000000000000000000000000000000000000000000000000000073ffffffffffffffffffffffffffffffffffffffff163073ffffffffffffffffffffffffffffffffffffffff161415610ac1576040517f08c379a0000000000000000000000000000000000000000000000000000000008152600401610ab890612d3b565b60405180910390fd5b7f000000000000000000000000000000000000000000000000000000000000000073ffffffffffffffffffffffffffffffffffffffff16610b006116b1565b73ffffffffffffffffffffffffffffffffffffffff1614610b56576040517f08c379a0000000000000000000000000000000000000000000000000000000008152600401610b4d90612d9b565b60405180910390fd5b610b5f82611708565b610b6b82826001611787565b5050565b60007f000000000000000000000000000000000000000000000000000000000000000073ffffffffffffffffffffffffffffffffffffffff163073ffffffffffffffffffffffffffffffffffffffff1614610bff576040517f08c379a0000000000000000000000000000000000000000000000000000000008152600401610bf690612dbb565b60405180910390fd5b7f360894a13ba1a3210667c828492db98dca3e2076cc3735a920a3ca505d382bbc60001b905090565b6000609760009054906101000a900460ff16905090565b6000603360008373ffffffffffffffffffffffffffffffffffffffff1673ffffffffffffffffffffffffffffffffffffffff168152602001908152602001600020549050919050565b610c906111ce565b73ffffffffffffffffffffffffffffffffffffffff16610cae610ed6565b73ffffffffffffffffffffffffffffffffffffffff1614610d04576040517f08c379a0000000000000000000000000000000000000000000000000000000008152600401610cfb90612e7b565b60405180910390fd5b610d0e6000611ce0565b565b610d2282610d1c6111ce565b836113a1565b610d2c8282611b07565b5050565b6000610d3c6001611da6565b90508015610d60576001600060016101000a81548160ff0219169083151502179055505b610dd46040518060400160405280600781526020017f574c546f6b656e000000000000000000000000000000000000000000000000008152506040518060400160405280600381526020017f574c540000000000000000000000000000000000000000000000000000000000815250611e96565b610ddc611ef3565b610de4611f44565b610dec611f9d565b610df4611ff6565b8015610e4d5760008060016101000a81548160ff0219169083151502179055507f7f26b83ff96e1f2b6a682f133852f6798a09c465da95921460cefb38474024986001604051610e449190612c5e565b60405180910390a15b50565b610e586111ce565b73ffffffffffffffffffffffffffffffffffffffff16610e76610ed6565b73ffffffffffffffffffffffffffffffffffffffff1614610ecc576040517f08c379a0000000000000000000000000000000000000000000000000000000008152600401610ec390612e7b565b60405180910390fd5b610ed4612047565b565b600060c960009054906101000a900473ffffffffffffffffffffffffffffffffffffffff16905090565b606060378054610f0f90613176565b80601f0160208091040260200160405190810160405280929190818152602001828054610f3b90613176565b8015610f885780601f10610f5d57610100808354040283529160200191610f88565b820191906000526020600020905b815481529060010190602001808311610f6b57829003601f168201915b5050505050905090565b600080610f9d6111ce565b90506000610fab828661102c565b905083811015610ff0576040517f08c379a0000000000000000000000000000000000000000000000000000000008152600401610fe790612f3b565b60405180910390fd5b610ffd82868684036111d6565b60019250505092915050565b6000806110146111ce565b905061102181858561142d565b600191505092915050565b6000603460008473ffffffffffffffffffffffffffffffffffffffff1673ffffffffffffffffffffffffffffffffffffffff16815260200190815260200160002060008373ffffffffffffffffffffffffffffffffffffffff1673ffffffffffffffffffffffffffffffffffffffff16815260200190815260200160002054905092915050565b6110bb6111ce565b73ffffffffffffffffffffffffffffffffffffffff166110d9610ed6565b73ffffffffffffffffffffffffffffffffffffffff161461112f576040517f08c379a000000000000000000000000000000000000000000000000000000000815260040161112690612e7b565b60405180910390fd5b600073ffffffffffffffffffffffffffffffffffffffff168173ffffffffffffffffffffffffffffffffffffffff16141561119f576040517f08c379a000000000000000000000000000000000000000000000000000000000815260040161119690612cfb565b60405180910390fd5b6111a881611ce0565b50565b6000808273ffffffffffffffffffffffffffffffffffffffff163b119050919050565b600033905090565b600073ffffffffffffffffffffffffffffffffffffffff168373ffffffffffffffffffffffffffffffffffffffff161415611246576040517f08c379a000000000000000000000000000000000000000000000000000000000815260040161123d90612efb565b60405180910390fd5b600073ffffffffffffffffffffffffffffffffffffffff168273ffffffffffffffffffffffffffffffffffffffff1614156112b6576040517f08c379a00000000000000000000000000000000000000000000000000000000081526004016112ad90612d1b565b60405180910390fd5b80603460008573ffffffffffffffffffffffffffffffffffffffff1673ffffffffffffffffffffffffffffffffffffffff16815260200190815260200160002060008473ffffffffffffffffffffffffffffffffffffffff1673ffffffffffffffffffffffffffffffffffffffff168152602001908152602001600020819055508173ffffffffffffffffffffffffffffffffffffffff168373ffffffffffffffffffffffffffffffffffffffff167f8c5be1e5ebec7d5bd14f71427d1e84f3dd0314c0f7b2291e5b200ac8c7c3b925836040516113949190612f7b565b60405180910390a3505050565b60006113ad848461102c565b90507fffffffffffffffffffffffffffffffffffffffffffffffffffffffffffffffff81146114275781811015611419576040517f08c379a000000000000000000000000000000000000000000000000000000000815260040161141090612d5b565b60405180910390fd5b61142684848484036111d6565b5b50505050565b600073ffffffffffffffffffffffffffffffffffffffff168373ffffffffffffffffffffffffffffffffffffffff16141561149d576040517f08c379a000000000000000000000000000000000000000000000000000000000815260040161149490612edb565b60405180910390fd5b600073ffffffffffffffffffffffffffffffffffffffff168273ffffffffffffffffffffffffffffffffffffffff16141561150d576040517f08c379a000000000000000000000000000000000000000000000000000000000815260040161150490612c9b565b60405180910390fd5b6115188383836120ea565b6000603360008573ffffffffffffffffffffffffffffffffffffffff1673ffffffffffffffffffffffffffffffffffffffff1681526020019081526020016000205490508181101561159f576040517f08c379a000000000000000000000000000000000000000000000000000000000815260040161159690612d7b565b60405180910390fd5b818103603360008673ffffffffffffffffffffffffffffffffffffffff1673ffffffffffffffffffffffffffffffffffffffff1681526020019081526020016000208190555081603360008573ffffffffffffffffffffffffffffffffffffffff1673ffffffffffffffffffffffffffffffffffffffff16815260200190815260200160002060008282546116349190613039565b925050819055508273ffffffffffffffffffffffffffffffffffffffff168473ffffffffffffffffffffffffffffffffffffffff167fddf252ad1be2c89b69c2b068fc378daa952ba7f163c4a11628f55a4df523b3ef846040516116989190612f7b565b60405180910390a36116ab848484612142565b50505050565b60006116df7f360894a13ba1a3210667c828492db98dca3e2076cc3735a920a3ca505d382bbc60001b612147565b60000160009054906101000a900473ffffffffffffffffffffffffffffffffffffffff16905090565b6117106111ce565b73ffffffffffffffffffffffffffffffffffffffff1661172e610ed6565b73ffffffffffffffffffffffffffffffffffffffff1614611784576040517f08c379a000000000000000000000000000000000000000000000000000000000815260040161177b90612e7b565b60405180910390fd5b50565b6117b37f4910fdfa16fed3260ed0e7147f7cc6da11a60208b5b9406d12a635614ffd914360001b612151565b60000160009054906101000a900460ff16156117d7576117d28361215b565b6118ff565b8273ffffffffffffffffffffffffffffffffffffffff166352d1902d6040518163ffffffff1660e01b815260040160206040518083038186803b15801561181d57600080fd5b505afa92505050801561184e57506040513d601f19601f8201168201806040525081019061184b91906127bb565b60015b61188d576040517f08c379a000000000000000000000000000000000000000000000000000000000815260040161188490612e3b565b60405180910390fd5b7f360894a13ba1a3210667c828492db98dca3e2076cc3735a920a3ca505d382bbc60001b81146118f2576040517f08c379a00000000000000000000000000000000000000000000000000000000081526004016118e990612dfb565b60405180910390fd5b506118fe838383612214565b5b505050565b61190c610c28565b61194b576040517f08c379a000000000000000000000000000000000000000000000000000000000815260040161194290612cbb565b60405180910390fd5b6000609760006101000a81548160ff0219169083151502179055507f5db9ee0a495bf2e6ff9c91a7834c1ba4fdd244a5e8aa4e537bd38aeae4b073aa61198f6111ce565b60405161199c9190612c0d565b60405180910390a1565b600073ffffffffffffffffffffffffffffffffffffffff168273ffffffffffffffffffffffffffffffffffffffff161415611a16576040517f08c379a0000000000000000000000000000000000000000000000000000000008152600401611a0d90612f5b565b60405180910390fd5b611a22600083836120ea565b8060356000828254611a349190613039565b9250508190555080603360008473ffffffffffffffffffffffffffffffffffffffff1673ffffffffffffffffffffffffffffffffffffffff1681526020019081526020016000206000828254611a8a9190613039565b925050819055508173ffffffffffffffffffffffffffffffffffffffff16600073ffffffffffffffffffffffffffffffffffffffff167fddf252ad1be2c89b69c2b068fc378daa952ba7f163c4a11628f55a4df523b3ef83604051611aef9190612f7b565b60405180910390a3611b0360008383612142565b5050565b600073ffffffffffffffffffffffffffffffffffffffff168273ffffffffffffffffffffffffffffffffffffffff161415611b77576040517f08c379a0000000000000000000000000000000000000000000000000000000008152600401611b6e90612e9b565b60405180910390fd5b611b83826000836120ea565b6000603360008473ffffffffffffffffffffffffffffffffffffffff1673ffffffffffffffffffffffffffffffffffffffff16815260200190815260200160002054905081811015611c0a576040517f08c379a0000000000000000000000000000000000000000000000000000000008152600401611c0190612cdb565b60405180910390fd5b818103603360008573ffffffffffffffffffffffffffffffffffffffff1673ffffffffffffffffffffffffffffffffffffffff168152602001908152602001600020819055508160356000828254611c62919061308f565b92505081905550600073ffffffffffffffffffffffffffffffffffffffff168373ffffffffffffffffffffffffffffffffffffffff167fddf252ad1be2c89b69c2b068fc378daa952ba7f163c4a11628f55a4df523b3ef84604051611cc79190612f7b565b60405180910390a3611cdb83600084612142565b505050565b600060c960009054906101000a900473ffffffffffffffffffffffffffffffffffffffff1690508160c960006101000a81548173ffffffffffffffffffffffffffffffffffffffff021916908373ffffffffffffffffffffffffffffffffffffffff1602179055508173ffffffffffffffffffffffffffffffffffffffff168173ffffffffffffffffffffffffffffffffffffffff167f8be0079c531659141344cd1fd0a4f28419497f9722a3daafe3b4186f6b6457e060405160405180910390a35050565b60008060019054906101000a900460ff1615611e1d5760018260ff16148015611dd55750611dd3306111ab565b155b611e14576040517f08c379a0000000000000000000000000000000000000000000000000000000008152600401611e0b90612e1b565b60405180910390fd5b60009050611e91565b8160ff1660008054906101000a900460ff1660ff1610611e72576040517f08c379a0000000000000000000000000000000000000000000000000000000008152600401611e6990612e1b565b60405180910390fd5b816000806101000a81548160ff021916908360ff160217905550600190505b919050565b600060019054906101000a900460ff16611ee5576040517f08c379a0000000000000000000000000000000000000000000000000000000008152600401611edc90612f1b565b60405180910390fd5b611eef8282612240565b5050565b600060019054906101000a900460ff16611f42576040517f08c379a0000000000000000000000000000000000000000000000000000000008152600401611f3990612f1b565b60405180910390fd5b565b600060019054906101000a900460ff16611f93576040517f08c379a0000000000000000000000000000000000000000000000000000000008152600401611f8a90612f1b565b60405180910390fd5b611f9b6122c1565b565b600060019054906101000a900460ff16611fec576040517f08c379a0000000000000000000000000000000000000000000000000000000008152600401611fe390612f1b565b60405180910390fd5b611ff461232d565b565b600060019054906101000a900460ff16612045576040517f08c379a000000000000000000000000000000000000000000000000000000000815260040161203c90612f1b565b60405180910390fd5b565b61204f610c28565b1561208f576040517f08c379a000000000000000000000000000000000000000000000000000000000815260040161208690612ddb565b60405180910390fd5b6001609760006101000a81548160ff0219169083151502179055507f62e78cea01bee320cd4e420270b5ea74000d11b0c9f74754ebdbfc544b05a2586120d36111ce565b6040516120e09190612c0d565b60405180910390a1565b6120f2610c28565b15612132576040517f08c379a000000000000000000000000000000000000000000000000000000000815260040161212990612ddb565b60405180910390fd5b61213d83838361238e565b505050565b505050565b6000819050919050565b6000819050919050565b612164816111ab565b6121a3576040517f08c379a000000000000000000000000000000000000000000000000000000000815260040161219a90612e5b565b60405180910390fd5b806121d07f360894a13ba1a3210667c828492db98dca3e2076cc3735a920a3ca505d382bbc60001b612147565b60000160006101000a81548173ffffffffffffffffffffffffffffffffffffffff021916908373ffffffffffffffffffffffffffffffffffffffff16021790555050565b61221d83612393565b60008251118061222a5750805b1561223b5761223983836123e2565b505b505050565b600060019054906101000a900460ff1661228f576040517f08c379a000000000000000000000000000000000000000000000000000000000815260040161228690612f1b565b60405180910390fd5b81603690805190602001906122a592919061252d565b5080603790805190602001906122bc92919061252d565b505050565b600060019054906101000a900460ff16612310576040517f08c379a000000000000000000000000000000000000000000000000000000000815260040161230790612f1b565b60405180910390fd5b6000609760006101000a81548160ff021916908315150217905550565b600060019054906101000a900460ff1661237c576040517f08c379a000000000000000000000000000000000000000000000000000000000815260040161237390612f1b565b60405180910390fd5b61238c6123876111ce565b611ce0565b565b505050565b61239c8161215b565b8073ffffffffffffffffffffffffffffffffffffffff167fbc7cd75a20ee27fd9adebab32041f755214dbc6bffa90cc0225b39da2e5c2d3b60405160405180910390a250565b60606123ed836111ab565b61242c576040517f08c379a000000000000000000000000000000000000000000000000000000000815260040161242390612ebb565b60405180910390fd5b6000808473ffffffffffffffffffffffffffffffffffffffff16846040516124549190612bf6565b600060405180830381855af49150503d806000811461248f576040519150601f19603f3d011682016040523d82523d6000602084013e612494565b606091505b50915091506124bc8282604051806060016040528060278152602001613918602791396124c6565b9250505092915050565b606083156124d657829050612526565b6000835111156124e95782518084602001fd5b816040517f08c379a000000000000000000000000000000000000000000000000000000000815260040161251d9190612c79565b60405180910390fd5b9392505050565b82805461253990613176565b90600052602060002090601f01602090048101928261255b57600085556125a2565b82601f1061257457805160ff19168380011785556125a2565b828001600101855582156125a2579182015b828111156125a1578251825591602001919060010190612586565b5b5090506125af91906125b3565b5090565b5b808211156125cc5760008160009055506001016125b4565b5090565b60006125e36125de84612fd6565b612fb1565b9050828152602081018484840111156125fb57600080fd5b612606848285613134565b509392505050565b60008135905061261d816138d2565b92915050565b600081519050612632816138e9565b92915050565b600082601f83011261264957600080fd5b81356126598482602086016125d0565b91505092915050565b60008135905061267181613900565b92915050565b60006020828403121561268957600080fd5b60006126978482850161260e565b91505092915050565b600080604083850312156126b357600080fd5b60006126c18582860161260e565b92505060206126d28582860161260e565b9150509250929050565b6000806000606084860312156126f157600080fd5b60006126ff8682870161260e565b93505060206127108682870161260e565b925050604061272186828701612662565b9150509250925092565b6000806040838503121561273e57600080fd5b600061274c8582860161260e565b925050602083013567ffffffffffffffff81111561276957600080fd5b61277585828601612638565b9150509250929050565b6000806040838503121561279257600080fd5b60006127a08582860161260e565b92505060206127b185828601612662565b9150509250929050565b6000602082840312156127cd57600080fd5b60006127db84828501612623565b91505092915050565b6000602082840312156127f657600080fd5b600061280484828501612662565b91505092915050565b612816816130c3565b82525050565b612825816130d5565b82525050565b612834816130e1565b82525050565b600061284582613007565b61284f818561301d565b935061285f818560208601613143565b80840191505092915050565b61287481613122565b82525050565b600061288582613012565b61288f8185613028565b935061289f818560208601613143565b6128a881613266565b840191505092915050565b60006128c0602383613028565b91506128cb82613277565b604082019050919050565b60006128e3601483613028565b91506128ee826132c6565b602082019050919050565b6000612906602283613028565b9150612911826132ef565b604082019050919050565b6000612929602683613028565b91506129348261333e565b604082019050919050565b600061294c602283613028565b91506129578261338d565b604082019050919050565b600061296f602c83613028565b915061297a826133dc565b604082019050919050565b6000612992601d83613028565b915061299d8261342b565b602082019050919050565b60006129b5602683613028565b91506129c082613454565b604082019050919050565b60006129d8602c83613028565b91506129e3826134a3565b604082019050919050565b60006129fb603883613028565b9150612a06826134f2565b604082019050919050565b6000612a1e601083613028565b9150612a2982613541565b602082019050919050565b6000612a41602983613028565b9150612a4c8261356a565b604082019050919050565b6000612a64602e83613028565b9150612a6f826135b9565b604082019050919050565b6000612a87602e83613028565b9150612a9282613608565b604082019050919050565b6000612aaa602d83613028565b9150612ab582613657565b604082019050919050565b6000612acd602083613028565b9150612ad8826136a6565b602082019050919050565b6000612af0602183613028565b9150612afb826136cf565b604082019050919050565b6000612b13602683613028565b9150612b1e8261371e565b604082019050919050565b6000612b36602583613028565b9150612b418261376d565b604082019050919050565b6000612b59602483613028565b9150612b64826137bc565b604082019050919050565b6000612b7c602b83613028565b9150612b878261380b565b604082019050919050565b6000612b9f602583613028565b9150612baa8261385a565b604082019050919050565b6000612bc2601f83613028565b9150612bcd826138a9565b602082019050919050565b612be18161310b565b82525050565b612bf081613115565b82525050565b6000612c02828461283a565b915081905092915050565b6000602082019050612c22600083018461280d565b92915050565b6000602082019050612c3d600083018461281c565b92915050565b6000602082019050612c58600083018461282b565b92915050565b6000602082019050612c73600083018461286b565b92915050565b60006020820190508181036000830152612c93818461287a565b905092915050565b60006020820190508181036000830152612cb4816128b3565b9050919050565b60006020820190508181036000830152612cd4816128d6565b9050919050565b60006020820190508181036000830152612cf4816128f9565b9050919050565b60006020820190508181036000830152612d148161291c565b9050919050565b60006020820190508181036000830152612d348161293f565b9050919050565b60006020820190508181036000830152612d5481612962565b9050919050565b60006020820190508181036000830152612d7481612985565b9050919050565b60006020820190508181036000830152612d94816129a8565b9050919050565b60006020820190508181036000830152612db4816129cb565b9050919050565b60006020820190508181036000830152612dd4816129ee565b9050919050565b60006020820190508181036000830152612df481612a11565b9050919050565b60006020820190508181036000830152612e1481612a34565b9050919050565b60006020820190508181036000830152612e3481612a57565b9050919050565b60006020820190508181036000830152612e5481612a7a565b9050919050565b60006020820190508181036000830152612e7481612a9d565b9050919050565b60006020820190508181036000830152612e9481612ac0565b9050919050565b60006020820190508181036000830152612eb481612ae3565b9050919050565b60006020820190508181036000830152612ed481612b06565b9050919050565b60006020820190508181036000830152612ef481612b29565b9050919050565b60006020820190508181036000830152612f1481612b4c565b9050919050565b60006020820190508181036000830152612f3481612b6f565b9050919050565b60006020820190508181036000830152612f5481612b92565b9050919050565b60006020820190508181036000830152612f7481612bb5565b9050919050565b6000602082019050612f906000830184612bd8565b92915050565b6000602082019050612fab6000830184612be7565b92915050565b6000612fbb612fcc565b9050612fc782826131a8565b919050565b6000604051905090565b600067ffffffffffffffff821115612ff157612ff0613237565b5b612ffa82613266565b9050602081019050919050565b600081519050919050565b600081519050919050565b600081905092915050565b600082825260208201905092915050565b60006130448261310b565b915061304f8361310b565b9250827fffffffffffffffffffffffffffffffffffffffffffffffffffffffffffffffff03821115613084576130836131d9565b5b828201905092915050565b600061309a8261310b565b91506130a58361310b565b9250828210156130b8576130b76131d9565b5b828203905092915050565b60006130ce826130eb565b9050919050565b60008115159050919050565b6000819050919050565b600073ffffffffffffffffffffffffffffffffffffffff82169050919050565b6000819050919050565b600060ff82169050919050565b600061312d82613115565b9050919050565b82818337600083830152505050565b60005b83811015613161578082015181840152602081019050613146565b83811115613170576000848401525b50505050565b6000600282049050600182168061318e57607f821691505b602082108114156131a2576131a1613208565b5b50919050565b6131b182613266565b810181811067ffffffffffffffff821117156131d0576131cf613237565b5b80604052505050565b7f4e487b7100000000000000000000000000000000000000000000000000000000600052601160045260246000fd5b7f4e487b7100000000000000000000000000000000000000000000000000000000600052602260045260246000fd5b7f4e487b7100000000000000000000000000000000000000000000000000000000600052604160045260246000fd5b6000601f19601f8301169050919050565b7f45524332303a207472616e7366657220746f20746865207a65726f206164647260008201527f6573730000000000000000000000000000000000000000000000000000000000602082015250565b7f5061757361626c653a206e6f7420706175736564000000000000000000000000600082015250565b7f45524332303a206275726e20616d6f756e7420657863656564732062616c616e60008201527f6365000000000000000000000000000000000000000000000000000000000000602082015250565b7f4f776e61626c653a206e6577206f776e657220697320746865207a65726f206160008201527f6464726573730000000000000000000000000000000000000000000000000000602082015250565b7f45524332303a20617070726f766520746f20746865207a65726f20616464726560008201527f7373000000000000000000000000000000000000000000000000000000000000602082015250565b7f46756e6374696f6e206d7573742062652063616c6c6564207468726f7567682060008201527f64656c656761746563616c6c0000000000000000000000000000000000000000602082015250565b7f45524332303a20696e73756666696369656e7420616c6c6f77616e6365000000600082015250565b7f45524332303a207472616e7366657220616d6f756e742065786365656473206260008201527f616c616e63650000000000000000000000000000000000000000000000000000602082015250565b7f46756e6374696f6e206d7573742062652063616c6c6564207468726f7567682060008201527f6163746976652070726f78790000000000000000000000000000000000000000602082015250565b7f555550535570677261646561626c653a206d757374206e6f742062652063616c60008201527f6c6564207468726f7567682064656c656761746563616c6c0000000000000000602082015250565b7f5061757361626c653a2070617573656400000000000000000000000000000000600082015250565b7f45524331393637557067726164653a20756e737570706f727465642070726f7860008201527f6961626c65555549440000000000000000000000000000000000000000000000602082015250565b7f496e697469616c697a61626c653a20636f6e747261637420697320616c72656160008201527f647920696e697469616c697a6564000000000000000000000000000000000000602082015250565b7f45524331393637557067726164653a206e657720696d706c656d656e7461746960008201527f6f6e206973206e6f742055555053000000000000000000000000000000000000602082015250565b7f455243313936373a206e657720696d706c656d656e746174696f6e206973206e60008201527f6f74206120636f6e747261637400000000000000000000000000000000000000602082015250565b7f4f776e61626c653a2063616c6c6572206973206e6f7420746865206f776e6572600082015250565b7f45524332303a206275726e2066726f6d20746865207a65726f2061646472657360008201527f7300000000000000000000000000000000000000000000000000000000000000602082015250565b7f416464726573733a2064656c65676174652063616c6c20746f206e6f6e2d636f60008201527f6e74726163740000000000000000000000000000000000000000000000000000602082015250565b7f45524332303a207472616e736665722066726f6d20746865207a65726f20616460008201527f6472657373000000000000000000000000000000000000000000000000000000602082015250565b7f45524332303a20617070726f76652066726f6d20746865207a65726f2061646460008201527f7265737300000000000000000000000000000000000000000000000000000000602082015250565b7f496e697469616c697a61626c653a20636f6e7472616374206973206e6f74206960008201527f6e697469616c697a696e67000000000000000000000000000000000000000000602082015250565b7f45524332303a2064656372656173656420616c6c6f77616e63652062656c6f7760008201527f207a65726f000000000000000000000000000000000000000000000000000000602082015250565b7f45524332303a206d696e7420746f20746865207a65726f206164647265737300600082015250565b6138db816130c3565b81146138e657600080fd5b50565b6138f2816130e1565b81146138fd57600080fd5b50565b6139098161310b565b811461391457600080fd5b5056fe416464726573733a206c6f772d6c6576656c2064656c65676174652063616c6c206661696c6564a2646970667358221220b93710893b77ec0ef0dfda31d0a6f3fb7457daf8a7b69e913280584b53ecb6e664736f6c63430008040033",
  "linkReferences": {},
  "deployedLinkReferences": {}
}