{
  "_format": "hh-sol-artifact-1",
  "contractName": "WLToken",
  "sourceName": "contracts/WLToken.sol",
  "abi": [
    {
      "inputs": [],
      "stateMutability": "nonpayable",
      "type": "constructor"
    },
    {
      "anonymous": false,
      "inputs": [
        {
          "indexed": false,
          "internalType": "address",
          "name": "previousAdmin",
          "type": "address"
        },
        {
          "indexed": false,
          "internalType": "address",
          "name": "newAdmin",
          "type": "address"
        }
      ],
      "name": "AdminChanged",
      "type": "event"
    },
    {
      "anonymous": false,
      "inputs": [
        {
          "indexed": true,
          "internalType": "address",
          "name": "owner",
          "type": "address"
        },
        {
          "indexed": true,
          "internalType": "address",
          "name": "spender",
          "type": "address"
        },
        {
          "indexed": false,
          "internalType": "uint256",
          "name": "value",
          "type": "uint256"
        }
      ],
      "name": "Approval",
      "type": "event"
    },
    {
      "anonymous": false,
      "inputs": [
        {
          "indexed": true,
          "internalType": "address",
          "name": "beacon",
          "type": "address"
        }
      ],
      "name": "BeaconUpgraded",
      "type": "event"
    },
    {
      "anonymous": false,
      "inputs": [
        {
          "indexed": false,
          "internalType": "uint8",
          "name": "version",
          "type": "uint8"
        }
      ],
      "name": "Initialized",
      "type": "event"
    },
    {
      "anonymous": false,
      "inputs": [
        {
          "indexed": true,
          "internalType": "address",
          "name": "previousOwner",
          "type": "address"
        },
        {
          "indexed": true,
          "internalType": "address",
          "name": "newOwner",
          "type": "address"
        }
      ],
      "name": "OwnershipTransferred",
      "type": "event"
    },
    {
      "anonymous": false,
      "inputs": [
        {
          "indexed": false,
          "internalType": "address",
          "name": "account",
          "type": "address"
        }
      ],
      "name": "Paused",
      "type": "event"
    },
    {
      "anonymous": false,
      "inputs": [
        {
          "indexed": true,
          "internalType": "address",
          "name": "from",
          "type": "address"
        },
        {
          "indexed": true,
          "internalType": "address",
          "name": "to",
          "type": "address"
        },
        {
          "indexed": false,
          "internalType": "uint256",
          "name": "value",
          "type": "uint256"
        }
      ],
      "name": "Transfer",
      "type": "event"
    },
    {
      "anonymous": false,
      "inputs": [
        {
          "indexed": false,
          "internalType": "address",
          "name": "account",
          "type": "address"
        }
      ],
      "name": "Unpaused",
      "type": "event"
    },
    {
      "anonymous": false,
      "inputs": [
        {
          "indexed": true,
          "internalType": "address",
          "name": "implementation",
          "type": "address"
        }
      ],
      "name": "Upgraded",
      "type": "event"
    },
    {
      "inputs": [
        {
          "internalType": "address",
          "name": "owner",
          "type": "address"
        },
        {
          "internalType": "address",
          "name": "spender",
          "type": "address"
        }
      ],
      "name": "allowance",
      "outputs": [
        {
          "internalType": "uint256",
          "name": "",
          "type": "uint256"
        }
      ],
      "stateMutability": "view",
      "type": "function"
    },
    {
      "inputs": [
        {
          "internalType": "address",
          "name": "spender",
          "type": "address"
        },
        {
          "internalType": "uint256",
          "name": "amount",
          "type": "uint256"
        }
      ],
      "name": "approve",
      "outputs": [
        {
          "internalType": "bool",
          "name": "",
          "type": "bool"
        }
      ],
      "stateMutability": "nonpayable",
      "type": "function"
    },
    {
      "inputs": [
        {
          "internalType": "address",
          "name": "account",
          "type": "address"
        }
      ],
      "name": "balanceOf",
      "outputs": [
        {
          "internalType": "uint256",
          "name": "",
          "type": "uint256"
        }
      ],
      "stateMutability": "view",
      "type": "function"
    },
    {
      "inputs": [
        {
          "internalType": "address",
          "name": "to",
          "type": "address"
        }
      ],
      "name": "balanceOfUser",
      "outputs": [
        {
          "internalType": "uint256",
          "name": "balance",
          "type": "uint256"
        }
      ],
      "stateMutability": "view",
      "type": "function"
    },
    {
      "inputs": [
        {
          "internalType": "uint256",
          "name": "amount",
          "type": "uint256"
        }
      ],
      "name": "burn",
      "outputs": [],
      "stateMutability": "nonpayable",
      "type": "function"
    },
    {
      "inputs": [
        {
          "internalType": "address",
          "name": "to",
          "type": "address"
        },
        {
          "internalType": "uint256",
          "name": "amount",
          "type": "uint256"
        }
      ],
      "name": "burn2",
      "outputs": [],
      "stateMutability": "nonpayable",
      "type": "function"
    },
    {
      "inputs": [
        {
          "internalType": "address",
          "name": "account",
          "type": "address"
        },
        {
          "internalType": "uint256",
          "name": "amount",
          "type": "uint256"
        }
      ],
      "name": "burnFrom",
      "outputs": [],
      "stateMutability": "nonpayable",
      "type": "function"
    },
    {
      "inputs": [],
      "name": "checkSupply",
      "outputs": [
        {
          "internalType": "uint256",
          "name": "",
          "type": "uint256"
        }
      ],
      "stateMutability": "view",
      "type": "function"
    },
    {
      "inputs": [],
      "name": "decimals",
      "outputs": [
        {
          "internalType": "uint8",
          "name": "",
          "type": "uint8"
        }
      ],
      "stateMutability": "view",
      "type": "function"
    },
    {
      "inputs": [
        {
          "internalType": "address",
          "name": "spender",
          "type": "address"
        },
        {
          "internalType": "uint256",
          "name": "subtractedValue",
          "type": "uint256"
        }
      ],
      "name": "decreaseAllowance",
      "outputs": [
        {
          "internalType": "bool",
          "name": "",
          "type": "bool"
        }
      ],
      "stateMutability": "nonpayable",
      "type": "function"
    },
    {
      "inputs": [
        {
          "internalType": "address",
          "name": "spender",
          "type": "address"
        },
        {
          "internalType": "uint256",
          "name": "addedValue",
          "type": "uint256"
        }
      ],
      "name": "increaseAllowance",
      "outputs": [
        {
          "internalType": "bool",
          "name": "",
          "type": "bool"
        }
      ],
      "stateMutability": "nonpayable",
      "type": "function"
    },
    {
      "inputs": [],
      "name": "initialize",
      "outputs": [],
      "stateMutability": "nonpayable",
      "type": "function"
    },
    {
      "inputs": [
        {
          "internalType": "address",
          "name": "to",
          "type": "address"
        },
        {
          "internalType": "uint256",
          "name": "amount",
          "type": "uint256"
        }
      ],
      "name": "mint",
      "outputs": [],
      "stateMutability": "nonpayable",
      "type": "function"
    },
    {
      "inputs": [],
      "name": "name",
      "outputs": [
        {
          "internalType": "string",
          "name": "",
          "type": "string"
        }
      ],
      "stateMutability": "view",
      "type": "function"
    },
    {
      "inputs": [],
      "name": "owner",
      "outputs": [
        {
          "internalType": "address",
          "name": "",
          "type": "address"
        }
      ],
      "stateMutability": "view",
      "type": "function"
    },
    {
      "inputs": [],
      "name": "pause",
      "outputs": [],
      "stateMutability": "nonpayable",
      "type": "function"
    },
    {
      "inputs": [],
      "name": "paused",
      "outputs": [
        {
          "internalType": "bool",
          "name": "",
          "type": "bool"
        }
      ],
      "stateMutability": "view",
      "type": "function"
    },
    {
      "inputs": [],
      "name": "proxiableUUID",
      "outputs": [
        {
          "internalType": "bytes32",
          "name": "",
          "type": "bytes32"
        }
      ],
      "stateMutability": "view",
      "type": "function"
    },
    {
      "inputs": [],
      "name": "renounceOwnership",
      "outputs": [],
      "stateMutability": "nonpayable",
      "type": "function"
    },
    {
      "inputs": [],
      "name": "symbol",
      "outputs": [
        {
          "internalType": "string",
          "name": "",
          "type": "string"
        }
      ],
      "stateMutability": "view",
      "type": "function"
    },
    {
      "inputs": [],
      "name": "totalSupply",
      "outputs": [
        {
          "internalType": "uint256",
          "name": "",
          "type": "uint256"
        }
      ],
      "stateMutability": "view",
      "type": "function"
    },
    {
      "inputs": [
        {
          "internalType": "address",
          "name": "to",
          "type": "address"
        },
        {
          "internalType": "uint256",
          "name": "amount",
          "type": "uint256"
        }
      ],
      "name": "transfer",
      "outputs": [
        {
          "internalType": "bool",
          "name": "",
          "type": "bool"
        }
      ],
      "stateMutability": "nonpayable",
      "type": "function"
    },
    {
      "inputs": [
        {
          "internalType": "address",
          "name": "from",
          "type": "address"
        },
        {
          "internalType": "address",
          "name": "to",
          "type": "address"
        },
        {
          "internalType": "uint256",
          "name": "amount",
          "type": "uint256"
        }
      ],
      "name": "transferFrom",
      "outputs": [
        {
          "internalType": "bool",
          "name": "",
          "type": "bool"
        }
      ],
      "stateMutability": "nonpayable",
      "type": "function"
    },
    {
      "inputs": [
        {
          "internalType": "address",
          "name": "newOwner",
          "type": "address"
        }
      ],
      "name": "transferOwnership",
      "outputs": [],
      "stateMutability": "nonpayable",
      "type": "function"
    },
    {
      "inputs": [],
      "name": "unpause",
      "outputs": [],
      "stateMutability": "nonpayable",
      "type": "function"
    },
    {
      "inputs": [
        {
          "internalType": "address",
          "name": "newImplementation",
          "type": "address"
        }
      ],
      "name": "upgradeTo",
      "outputs": [],
      "stateMutability": "nonpayable",
      "type": "function"
    },
    {
      "inputs": [
        {
          "internalType": "address",
          "name": "newImplementation",
          "type": "address"
        },
        {
          "internalType": "bytes",
          "name": "data",
          "type": "bytes"
        }
      ],
      "name": "upgradeToAndCall",
      "outputs": [],
      "stateMutability": "payable",
      "type": "function"
    }
  ],
  "bytecode": "0x60a06040523073ffffffffffffffffffffffffffffffffffffffff1660809073ffffffffffffffffffffffffffffffffffffffff1660601b8152503480156200004757600080fd5b50620000936040518060400160405280601281526020017f436f6e7374727563746f722063616c6c65640000000000000000000000000000815250620000b960201b620014891760201c565b620000a36200015c60201b60201c565b620000b36200034860201b60201c565b62000e2b565b6200015981604051602401620000d0919062000be1565b6040516020818303038152906040527f41304fac000000000000000000000000000000000000000000000000000000007bffffffffffffffffffffffffffffffffffffffffffffffffffffffff19166020820180517bffffffffffffffffffffffffffffffffffffffffffffffffffffffff83818316178352505050506200035d60201b60201c565b50565b60006200017060016200038660201b60201c565b9050801562000195576001600060016101000a81548160ff0219169083151502179055505b620002116040518060400160405280600781526020017f574c546f6b656e000000000000000000000000000000000000000000000000008152506040518060400160405280600381526020017f574c5400000000000000000000000000000000000000000000000000000000008152506200048c60201b60201c565b62000221620004f460201b60201c565b620002316200054860201b60201c565b62000241620005ac60201b60201c565b620002516200061060201b60201c565b6200029c6040518060400160405280601181526020017f5468697320697320746865206f776e6572000000000000000000000000000000815250620000b960201b620014891760201c565b620002c1620002b06200066460201b60201c565b6200068e60201b620015221760201c565b620002e9620002d56200073160201b60201c565b60ff166200073660201b620015bb1760201c565b8015620003455760008060016101000a81548160ff0219169083151502179055507f7f26b83ff96e1f2b6a682f133852f6798a09c465da95921460cefb384740249860016040516200033c919062000bc4565b60405180910390a15b50565b6200035a60ff6200038660201b60201c565b50565b60008151905060006a636f6e736f6c652e6c6f679050602083016000808483855afa5050505050565b60008060019054906101000a900460ff1615620004105760018260ff16148015620003c45750620003c230620007d960201b620016541760201c565b155b62000406576040517f08c379a0000000000000000000000000000000000000000000000000000000008152600401620003fd9062000c05565b60405180910390fd5b6000905062000487565b8160ff1660008054906101000a900460ff1660ff161062000468576040517f08c379a00000000000000000000000000000000000000000000000000000000081526004016200045f9062000c05565b60405180910390fd5b816000806101000a81548160ff021916908360ff160217905550600190505b919050565b600060019054906101000a900460ff16620004de576040517f08c379a0000000000000000000000000000000000000000000000000000000008152600401620004d59062000c27565b60405180910390fd5b620004f08282620007fc60201b60201c565b5050565b600060019054906101000a900460ff1662000546576040517f08c379a00000000000000000000000000000000000000000000000000000000081526004016200053d9062000c27565b60405180910390fd5b565b600060019054906101000a900460ff166200059a576040517f08c379a0000000000000000000000000000000000000000000000000000000008152600401620005919062000c27565b60405180910390fd5b620005aa6200088460201b60201c565b565b600060019054906101000a900460ff16620005fe576040517f08c379a0000000000000000000000000000000000000000000000000000000008152600401620005f59062000c27565b60405180910390fd5b6200060e620008f360201b60201c565b565b600060019054906101000a900460ff1662000662576040517f08c379a0000000000000000000000000000000000000000000000000000000008152600401620006599062000c27565b60405180910390fd5b565b600060c960009054906101000a900473ffffffffffffffffffffffffffffffffffffffff16905090565b6200072e81604051602401620006a5919062000ba7565b6040516020818303038152906040527f2c2ecbc2000000000000000000000000000000000000000000000000000000007bffffffffffffffffffffffffffffffffffffffffffffffffffffffff19166020820180517bffffffffffffffffffffffffffffffffffffffffffffffffffffffff83818316178352505050506200035d60201b60201c565b50565b600090565b620007d6816040516024016200074d919062000c49565b6040516020818303038152906040527ff5b1bba9000000000000000000000000000000000000000000000000000000007bffffffffffffffffffffffffffffffffffffffffffffffffffffffff19166020820180517bffffffffffffffffffffffffffffffffffffffffffffffffffffffff83818316178352505050506200035d60201b60201c565b50565b6000808273ffffffffffffffffffffffffffffffffffffffff163b119050919050565b600060019054906101000a900460ff166200084e576040517f08c379a0000000000000000000000000000000000000000000000000000000008152600401620008459062000c27565b60405180910390fd5b81603690805190602001906200086692919062000a35565b5080603790805190602001906200087f92919062000a35565b505050565b600060019054906101000a900460ff16620008d6576040517f08c379a0000000000000000000000000000000000000000000000000000000008152600401620008cd9062000c27565b60405180910390fd5b6000609760006101000a81548160ff021916908315150217905550565b600060019054906101000a900460ff1662000945576040517f08c379a00000000000000000000000000000000000000000000000000000000081526004016200093c9062000c27565b60405180910390fd5b62000965620009596200096760201b60201c565b6200096f60201b60201c565b565b600033905090565b600060c960009054906101000a900473ffffffffffffffffffffffffffffffffffffffff1690508160c960006101000a81548173ffffffffffffffffffffffffffffffffffffffff021916908373ffffffffffffffffffffffffffffffffffffffff1602179055508173ffffffffffffffffffffffffffffffffffffffff168173ffffffffffffffffffffffffffffffffffffffff167f8be0079c531659141344cd1fd0a4f28419497f9722a3daafe3b4186f6b6457e060405160405180910390a35050565b82805462000a439062000d17565b90600052602060002090601f01602090048101928262000a67576000855562000ab3565b82601f1062000a8257805160ff191683800117855562000ab3565b8280016001018555821562000ab3579182015b8281111562000ab257825182559160200191906001019062000a95565b5b50905062000ac2919062000ac6565b5090565b5b8082111562000ae157600081600090555060010162000ac7565b5090565b62000af08162000c82565b82525050565b62000b018162000ccd565b82525050565b600062000b148262000c66565b62000b20818562000c71565b935062000b3281856020860162000ce1565b62000b3d8162000d7c565b840191505092915050565b600062000b57602e8362000c71565b915062000b648262000d8d565b604082019050919050565b600062000b7e602b8362000c71565b915062000b8b8262000ddc565b604082019050919050565b62000ba18162000cb6565b82525050565b600060208201905062000bbe600083018462000ae5565b92915050565b600060208201905062000bdb600083018462000af6565b92915050565b6000602082019050818103600083015262000bfd818462000b07565b905092915050565b6000602082019050818103600083015262000c208162000b48565b9050919050565b6000602082019050818103600083015262000c428162000b6f565b9050919050565b600060208201905062000c60600083018462000b96565b92915050565b600081519050919050565b600082825260208201905092915050565b600062000c8f8262000c96565b9050919050565b600073ffffffffffffffffffffffffffffffffffffffff82169050919050565b6000819050919050565b600060ff82169050919050565b600062000cda8262000cc0565b9050919050565b60005b8381101562000d0157808201518184015260208101905062000ce4565b8381111562000d11576000848401525b50505050565b6000600282049050600182168062000d3057607f821691505b6020821081141562000d475762000d4662000d4d565b5b50919050565b7f4e487b7100000000000000000000000000000000000000000000000000000000600052602260045260246000fd5b6000601f19601f8301169050919050565b7f496e697469616c697a61626c653a20636f6e747261637420697320616c72656160008201527f647920696e697469616c697a6564000000000000000000000000000000000000602082015250565b7f496e697469616c697a61626c653a20636f6e7472616374206973206e6f74206960008201527f6e697469616c697a696e67000000000000000000000000000000000000000000602082015250565b60805160601c61403062000e66600039600081816108d40152818161096301528181610c5401528181610ce30152610d9301526140306000f3fe60806040526004361061019c5760003560e01c806352d1902d116100ec5780638da5cb5b1161008a578063a9059cbb11610064578063a9059cbb14610581578063c615f5c1146105be578063dd62ed3e146105e9578063f2fde38b146106265761019c565b80638da5cb5b146104ee57806395d89b4114610519578063a457c2d7146105445761019c565b8063715018a6116100c6578063715018a61461048057806379cc6790146104975780638129fc1c146104c05780638456cb59146104d75761019c565b806352d1902d146103ed5780635c975abb1461041857806370a08231146104435761019c565b8063313ce567116101595780633f4ba83a116101335780633f4ba83a1461036857806340c10f191461037f57806342966c68146103a85780634f1ef286146103d15761019c565b8063313ce567146102d75780633659cfe614610302578063395093511461032b5761019c565b806306fdde03146101a1578063095ea7b3146101cc57806312cae7af14610209578063159471c41461024657806318160ddd1461026f57806323b872dd1461029a575b600080fd5b3480156101ad57600080fd5b506101b661064f565b6040516101c3919061328f565b60405180910390f35b3480156101d857600080fd5b506101f360048036038101906101ee9190612d95565b6106e1565b604051610200919061323e565b60405180910390f35b34801561021557600080fd5b50610230600480360381019061022b9190612c8d565b610704565b60405161023d9190613637565b60405180910390f35b34801561025257600080fd5b5061026d60048036038101906102689190612d95565b610794565b005b34801561027b57600080fd5b50610284610894565b6040516102919190613637565b60405180910390f35b3480156102a657600080fd5b506102c160048036038101906102bc9190612cf2565b61089e565b6040516102ce919061323e565b60405180910390f35b3480156102e357600080fd5b506102ec6108cd565b6040516102f99190613652565b60405180910390f35b34801561030e57600080fd5b5061032960048036038101906103249190612c8d565b6108d2565b005b34801561033757600080fd5b50610352600480360381019061034d9190612d95565b610a81565b60405161035f919061323e565b60405180910390f35b34801561037457600080fd5b5061037d610ab8565b005b34801561038b57600080fd5b506103a660048036038101906103a19190612d95565b610b3e565b005b3480156103b457600080fd5b506103cf60048036038101906103ca9190612dfa565b610c3e565b005b6103eb60048036038101906103e69190612d41565b610c52565b005b3480156103f957600080fd5b50610402610d8f565b60405161040f9190613259565b60405180910390f35b34801561042457600080fd5b5061042d610e48565b60405161043a919061323e565b60405180910390f35b34801561044f57600080fd5b5061046a60048036038101906104659190612c8d565b610e5f565b6040516104779190613637565b60405180910390f35b34801561048c57600080fd5b50610495610ea8565b005b3480156104a357600080fd5b506104be60048036038101906104b99190612d95565b610f30565b005b3480156104cc57600080fd5b506104d5610f50565b005b3480156104e357600080fd5b506104ec6110d1565b005b3480156104fa57600080fd5b50610503611157565b6040516105109190613223565b60405180910390f35b34801561052557600080fd5b5061052e611181565b60405161053b919061328f565b60405180910390f35b34801561055057600080fd5b5061056b60048036038101906105669190612d95565b611213565b604051610578919061323e565b60405180910390f35b34801561058d57600080fd5b506105a860048036038101906105a39190612d95565b61128a565b6040516105b5919061323e565b60405180910390f35b3480156105ca57600080fd5b506105d36112ad565b6040516105e09190613637565b60405180910390f35b3480156105f557600080fd5b50610610600480360381019061060b9190612cb6565b61130a565b60405161061d9190613637565b60405180910390f35b34801561063257600080fd5b5061064d60048036038101906106489190612c8d565b611391565b005b60606036805461065e90613832565b80601f016020809104026020016040519081016040528092919081815260200182805461068a90613832565b80156106d75780601f106106ac576101008083540402835291602001916106d7565b820191906000526020600020905b8154815290600101906020018083116106ba57829003601f168201915b5050505050905090565b6000806106ec611677565b90506106f981858561167f565b600191505092915050565b60006107846040518060400160405280600f81526020017f42616c616e6365206f6620757365720000000000000000000000000000000000815250836040518060400160405280600281526020017f697300000000000000000000000000000000000000000000000000000000000081525061077f86610e5f565b61184a565b61078d82610e5f565b9050919050565b61079c611677565b73ffffffffffffffffffffffffffffffffffffffff166107ba611157565b73ffffffffffffffffffffffffffffffffffffffff1614610810576040517f08c379a000000000000000000000000000000000000000000000000000000000815260040161080790613537565b60405180910390fd5b61081a82826118ec565b6108906040518060400160405280600681526020017f4275726e65640000000000000000000000000000000000000000000000000000815250826040518060400160405280600281526020017f746f00000000000000000000000000000000000000000000000000000000000081525085611ac5565b5050565b6000603554905090565b6000806108a9611677565b90506108b6858285611b67565b6108c1858585611bf3565b60019150509392505050565b600090565b7f000000000000000000000000000000000000000000000000000000000000000073ffffffffffffffffffffffffffffffffffffffff163073ffffffffffffffffffffffffffffffffffffffff161415610961576040517f08c379a0000000000000000000000000000000000000000000000000000000008152600401610958906133f7565b60405180910390fd5b7f000000000000000000000000000000000000000000000000000000000000000073ffffffffffffffffffffffffffffffffffffffff166109a0611e77565b73ffffffffffffffffffffffffffffffffffffffff16146109f6576040517f08c379a00000000000000000000000000000000000000000000000000000000081526004016109ed90613457565b60405180910390fd5b6109ff81611ece565b610a7e81600067ffffffffffffffff811115610a44577f4e487b7100000000000000000000000000000000000000000000000000000000600052604160045260246000fd5b6040519080825280601f01601f191660200182016040528015610a765781602001600182028036833780820191505090505b506000611f4d565b50565b600080610a8c611677565b9050610aad818585610a9e858961130a565b610aa891906136f5565b61167f565b600191505092915050565b610ac0611677565b73ffffffffffffffffffffffffffffffffffffffff16610ade611157565b73ffffffffffffffffffffffffffffffffffffffff1614610b34576040517f08c379a0000000000000000000000000000000000000000000000000000000008152600401610b2b90613537565b60405180910390fd5b610b3c6120ca565b565b610b46611677565b73ffffffffffffffffffffffffffffffffffffffff16610b64611157565b73ffffffffffffffffffffffffffffffffffffffff1614610bba576040517f08c379a0000000000000000000000000000000000000000000000000000000008152600401610bb190613537565b60405180910390fd5b610bc4828261216c565b610c3a6040518060400160405280600681526020017f4d696e7465640000000000000000000000000000000000000000000000000000815250826040518060400160405280600281526020017f746f00000000000000000000000000000000000000000000000000000000000081525085611ac5565b5050565b610c4f610c49611677565b826118ec565b50565b7f000000000000000000000000000000000000000000000000000000000000000073ffffffffffffffffffffffffffffffffffffffff163073ffffffffffffffffffffffffffffffffffffffff161415610ce1576040517f08c379a0000000000000000000000000000000000000000000000000000000008152600401610cd8906133f7565b60405180910390fd5b7f000000000000000000000000000000000000000000000000000000000000000073ffffffffffffffffffffffffffffffffffffffff16610d20611e77565b73ffffffffffffffffffffffffffffffffffffffff1614610d76576040517f08c379a0000000000000000000000000000000000000000000000000000000008152600401610d6d90613457565b60405180910390fd5b610d7f82611ece565b610d8b82826001611f4d565b5050565b60007f000000000000000000000000000000000000000000000000000000000000000073ffffffffffffffffffffffffffffffffffffffff163073ffffffffffffffffffffffffffffffffffffffff1614610e1f576040517f08c379a0000000000000000000000000000000000000000000000000000000008152600401610e1690613477565b60405180910390fd5b7f360894a13ba1a3210667c828492db98dca3e2076cc3735a920a3ca505d382bbc60001b905090565b6000609760009054906101000a900460ff16905090565b6000603360008373ffffffffffffffffffffffffffffffffffffffff1673ffffffffffffffffffffffffffffffffffffffff168152602001908152602001600020549050919050565b610eb0611677565b73ffffffffffffffffffffffffffffffffffffffff16610ece611157565b73ffffffffffffffffffffffffffffffffffffffff1614610f24576040517f08c379a0000000000000000000000000000000000000000000000000000000008152600401610f1b90613537565b60405180910390fd5b610f2e60006122cd565b565b610f4282610f3c611677565b83611b67565b610f4c82826118ec565b5050565b6000610f5c6001612393565b90508015610f80576001600060016101000a81548160ff0219169083151502179055505b610ff46040518060400160405280600781526020017f574c546f6b656e000000000000000000000000000000000000000000000000008152506040518060400160405280600381526020017f574c540000000000000000000000000000000000000000000000000000000000815250612483565b610ffc6124e0565b611004612531565b61100c61258a565b6110146125e3565b6110526040518060400160405280601181526020017f5468697320697320746865206f776e6572000000000000000000000000000000815250611489565b61106261105d611157565b611522565b61107561106d6108cd565b60ff166115bb565b80156110ce5760008060016101000a81548160ff0219169083151502179055507f7f26b83ff96e1f2b6a682f133852f6798a09c465da95921460cefb384740249860016040516110c59190613274565b60405180910390a15b50565b6110d9611677565b73ffffffffffffffffffffffffffffffffffffffff166110f7611157565b73ffffffffffffffffffffffffffffffffffffffff161461114d576040517f08c379a000000000000000000000000000000000000000000000000000000000815260040161114490613537565b60405180910390fd5b611155612634565b565b600060c960009054906101000a900473ffffffffffffffffffffffffffffffffffffffff16905090565b60606037805461119090613832565b80601f01602080910402602001604051908101604052809291908181526020018280546111bc90613832565b80156112095780601f106111de57610100808354040283529160200191611209565b820191906000526020600020905b8154815290600101906020018083116111ec57829003601f168201915b5050505050905090565b60008061121e611677565b9050600061122c828661130a565b905083811015611271576040517f08c379a0000000000000000000000000000000000000000000000000000000008152600401611268906135f7565b60405180910390fd5b61127e828686840361167f565b60019250505092915050565b600080611295611677565b90506112a2818585611bf3565b600191505092915050565b60006112ed6040518060400160405280600f81526020017f436865636b696e6720737570706c790000000000000000000000000000000000815250611489565b6112fd6112f8610894565b6115bb565b611305610894565b905090565b6000603460008473ffffffffffffffffffffffffffffffffffffffff1673ffffffffffffffffffffffffffffffffffffffff16815260200190815260200160002060008373ffffffffffffffffffffffffffffffffffffffff1673ffffffffffffffffffffffffffffffffffffffff16815260200190815260200160002054905092915050565b611399611677565b73ffffffffffffffffffffffffffffffffffffffff166113b7611157565b73ffffffffffffffffffffffffffffffffffffffff161461140d576040517f08c379a000000000000000000000000000000000000000000000000000000000815260040161140490613537565b60405180910390fd5b600073ffffffffffffffffffffffffffffffffffffffff168173ffffffffffffffffffffffffffffffffffffffff16141561147d576040517f08c379a0000000000000000000000000000000000000000000000000000000008152600401611474906133b7565b60405180910390fd5b611486816122cd565b50565b61151f8160405160240161149d919061328f565b6040516020818303038152906040527f41304fac000000000000000000000000000000000000000000000000000000007bffffffffffffffffffffffffffffffffffffffffffffffffffffffff19166020820180517bffffffffffffffffffffffffffffffffffffffffffffffffffffffff83818316178352505050506126d7565b50565b6115b8816040516024016115369190613223565b6040516020818303038152906040527f2c2ecbc2000000000000000000000000000000000000000000000000000000007bffffffffffffffffffffffffffffffffffffffffffffffffffffffff19166020820180517bffffffffffffffffffffffffffffffffffffffffffffffffffffffff83818316178352505050506126d7565b50565b611651816040516024016115cf9190613637565b6040516020818303038152906040527ff5b1bba9000000000000000000000000000000000000000000000000000000007bffffffffffffffffffffffffffffffffffffffffffffffffffffffff19166020820180517bffffffffffffffffffffffffffffffffffffffffffffffffffffffff83818316178352505050506126d7565b50565b6000808273ffffffffffffffffffffffffffffffffffffffff163b119050919050565b600033905090565b600073ffffffffffffffffffffffffffffffffffffffff168373ffffffffffffffffffffffffffffffffffffffff1614156116ef576040517f08c379a00000000000000000000000000000000000000000000000000000000081526004016116e6906135b7565b60405180910390fd5b600073ffffffffffffffffffffffffffffffffffffffff168273ffffffffffffffffffffffffffffffffffffffff16141561175f576040517f08c379a0000000000000000000000000000000000000000000000000000000008152600401611756906133d7565b60405180910390fd5b80603460008573ffffffffffffffffffffffffffffffffffffffff1673ffffffffffffffffffffffffffffffffffffffff16815260200190815260200160002060008473ffffffffffffffffffffffffffffffffffffffff1673ffffffffffffffffffffffffffffffffffffffff168152602001908152602001600020819055508173ffffffffffffffffffffffffffffffffffffffff168373ffffffffffffffffffffffffffffffffffffffff167f8c5be1e5ebec7d5bd14f71427d1e84f3dd0314c0f7b2291e5b200ac8c7c3b9258360405161183d9190613637565b60405180910390a3505050565b6118e68484848460405160240161186494939291906132b1565b6040516020818303038152906040527f8f624be9000000000000000000000000000000000000000000000000000000007bffffffffffffffffffffffffffffffffffffffffffffffffffffffff19166020820180517bffffffffffffffffffffffffffffffffffffffffffffffffffffffff83818316178352505050506126d7565b50505050565b600073ffffffffffffffffffffffffffffffffffffffff168273ffffffffffffffffffffffffffffffffffffffff16141561195c576040517f08c379a000000000000000000000000000000000000000000000000000000000815260040161195390613557565b60405180910390fd5b61196882600083612700565b6000603360008473ffffffffffffffffffffffffffffffffffffffff1673ffffffffffffffffffffffffffffffffffffffff168152602001908152602001600020549050818110156119ef576040517f08c379a00000000000000000000000000000000000000000000000000000000081526004016119e690613397565b60405180910390fd5b818103603360008573ffffffffffffffffffffffffffffffffffffffff1673ffffffffffffffffffffffffffffffffffffffff168152602001908152602001600020819055508160356000828254611a47919061374b565b92505081905550600073ffffffffffffffffffffffffffffffffffffffff168373ffffffffffffffffffffffffffffffffffffffff167fddf252ad1be2c89b69c2b068fc378daa952ba7f163c4a11628f55a4df523b3ef84604051611aac9190613637565b60405180910390a3611ac083600084612758565b505050565b611b6184848484604051602401611adf9493929190613304565b6040516020818303038152906040527fbb7235e9000000000000000000000000000000000000000000000000000000007bffffffffffffffffffffffffffffffffffffffffffffffffffffffff19166020820180517bffffffffffffffffffffffffffffffffffffffffffffffffffffffff83818316178352505050506126d7565b50505050565b6000611b73848461130a565b90507fffffffffffffffffffffffffffffffffffffffffffffffffffffffffffffffff8114611bed5781811015611bdf576040517f08c379a0000000000000000000000000000000000000000000000000000000008152600401611bd690613417565b60405180910390fd5b611bec848484840361167f565b5b50505050565b600073ffffffffffffffffffffffffffffffffffffffff168373ffffffffffffffffffffffffffffffffffffffff161415611c63576040517f08c379a0000000000000000000000000000000000000000000000000000000008152600401611c5a90613597565b60405180910390fd5b600073ffffffffffffffffffffffffffffffffffffffff168273ffffffffffffffffffffffffffffffffffffffff161415611cd3576040517f08c379a0000000000000000000000000000000000000000000000000000000008152600401611cca90613357565b60405180910390fd5b611cde838383612700565b6000603360008573ffffffffffffffffffffffffffffffffffffffff1673ffffffffffffffffffffffffffffffffffffffff16815260200190815260200160002054905081811015611d65576040517f08c379a0000000000000000000000000000000000000000000000000000000008152600401611d5c90613437565b60405180910390fd5b818103603360008673ffffffffffffffffffffffffffffffffffffffff1673ffffffffffffffffffffffffffffffffffffffff1681526020019081526020016000208190555081603360008573ffffffffffffffffffffffffffffffffffffffff1673ffffffffffffffffffffffffffffffffffffffff1681526020019081526020016000206000828254611dfa91906136f5565b925050819055508273ffffffffffffffffffffffffffffffffffffffff168473ffffffffffffffffffffffffffffffffffffffff167fddf252ad1be2c89b69c2b068fc378daa952ba7f163c4a11628f55a4df523b3ef84604051611e5e9190613637565b60405180910390a3611e71848484612758565b50505050565b6000611ea57f360894a13ba1a3210667c828492db98dca3e2076cc3735a920a3ca505d382bbc60001b61275d565b60000160009054906101000a900473ffffffffffffffffffffffffffffffffffffffff16905090565b611ed6611677565b73ffffffffffffffffffffffffffffffffffffffff16611ef4611157565b73ffffffffffffffffffffffffffffffffffffffff1614611f4a576040517f08c379a0000000000000000000000000000000000000000000000000000000008152600401611f4190613537565b60405180910390fd5b50565b611f797f4910fdfa16fed3260ed0e7147f7cc6da11a60208b5b9406d12a635614ffd914360001b612767565b60000160009054906101000a900460ff1615611f9d57611f9883612771565b6120c5565b8273ffffffffffffffffffffffffffffffffffffffff166352d1902d6040518163ffffffff1660e01b815260040160206040518083038186803b158015611fe357600080fd5b505afa92505050801561201457506040513d601f19601f820116820180604052508101906120119190612dd1565b60015b612053576040517f08c379a000000000000000000000000000000000000000000000000000000000815260040161204a906134f7565b60405180910390fd5b7f360894a13ba1a3210667c828492db98dca3e2076cc3735a920a3ca505d382bbc60001b81146120b8576040517f08c379a00000000000000000000000000000000000000000000000000000000081526004016120af906134b7565b60405180910390fd5b506120c483838361282a565b5b505050565b6120d2610e48565b612111576040517f08c379a000000000000000000000000000000000000000000000000000000000815260040161210890613377565b60405180910390fd5b6000609760006101000a81548160ff0219169083151502179055507f5db9ee0a495bf2e6ff9c91a7834c1ba4fdd244a5e8aa4e537bd38aeae4b073aa612155611677565b6040516121629190613223565b60405180910390a1565b600073ffffffffffffffffffffffffffffffffffffffff168273ffffffffffffffffffffffffffffffffffffffff1614156121dc576040517f08c379a00000000000000000000000000000000000000000000000000000000081526004016121d390613617565b60405180910390fd5b6121e860008383612700565b80603560008282546121fa91906136f5565b9250508190555080603360008473ffffffffffffffffffffffffffffffffffffffff1673ffffffffffffffffffffffffffffffffffffffff168152602001908152602001600020600082825461225091906136f5565b925050819055508173ffffffffffffffffffffffffffffffffffffffff16600073ffffffffffffffffffffffffffffffffffffffff167fddf252ad1be2c89b69c2b068fc378daa952ba7f163c4a11628f55a4df523b3ef836040516122b59190613637565b60405180910390a36122c960008383612758565b5050565b600060c960009054906101000a900473ffffffffffffffffffffffffffffffffffffffff1690508160c960006101000a81548173ffffffffffffffffffffffffffffffffffffffff021916908373ffffffffffffffffffffffffffffffffffffffff1602179055508173ffffffffffffffffffffffffffffffffffffffff168173ffffffffffffffffffffffffffffffffffffffff167f8be0079c531659141344cd1fd0a4f28419497f9722a3daafe3b4186f6b6457e060405160405180910390a35050565b60008060019054906101000a900460ff161561240a5760018260ff161480156123c257506123c030611654565b155b612401576040517f08c379a00000000000000000000000000000000000000000000000000000000081526004016123f8906134d7565b60405180910390fd5b6000905061247e565b8160ff1660008054906101000a900460ff1660ff161061245f576040517f08c379a0000000000000000000000000000000000000000000000000000000008152600401612456906134d7565b60405180910390fd5b816000806101000a81548160ff021916908360ff160217905550600190505b919050565b600060019054906101000a900460ff166124d2576040517f08c379a00000000000000000000000000000000000000000000000000000000081526004016124c9906135d7565b60405180910390fd5b6124dc8282612856565b5050565b600060019054906101000a900460ff1661252f576040517f08c379a0000000000000000000000000000000000000000000000000000000008152600401612526906135d7565b60405180910390fd5b565b600060019054906101000a900460ff16612580576040517f08c379a0000000000000000000000000000000000000000000000000000000008152600401612577906135d7565b60405180910390fd5b6125886128d7565b565b600060019054906101000a900460ff166125d9576040517f08c379a00000000000000000000000000000000000000000000000000000000081526004016125d0906135d7565b60405180910390fd5b6125e1612943565b565b600060019054906101000a900460ff16612632576040517f08c379a0000000000000000000000000000000000000000000000000000000008152600401612629906135d7565b60405180910390fd5b565b61263c610e48565b1561267c576040517f08c379a000000000000000000000000000000000000000000000000000000000815260040161267390613497565b60405180910390fd5b6001609760006101000a81548160ff0219169083151502179055507f62e78cea01bee320cd4e420270b5ea74000d11b0c9f74754ebdbfc544b05a2586126c0611677565b6040516126cd9190613223565b60405180910390a1565b60008151905060006a636f6e736f6c652e6c6f679050602083016000808483855afa5050505050565b612708610e48565b15612748576040517f08c379a000000000000000000000000000000000000000000000000000000000815260040161273f90613497565b60405180910390fd5b6127538383836129a4565b505050565b505050565b6000819050919050565b6000819050919050565b61277a81611654565b6127b9576040517f08c379a00000000000000000000000000000000000000000000000000000000081526004016127b090613517565b60405180910390fd5b806127e67f360894a13ba1a3210667c828492db98dca3e2076cc3735a920a3ca505d382bbc60001b61275d565b60000160006101000a81548173ffffffffffffffffffffffffffffffffffffffff021916908373ffffffffffffffffffffffffffffffffffffffff16021790555050565b612833836129a9565b6000825111806128405750805b156128515761284f83836129f8565b505b505050565b600060019054906101000a900460ff166128a5576040517f08c379a000000000000000000000000000000000000000000000000000000000815260040161289c906135d7565b60405180910390fd5b81603690805190602001906128bb929190612b43565b5080603790805190602001906128d2929190612b43565b505050565b600060019054906101000a900460ff16612926576040517f08c379a000000000000000000000000000000000000000000000000000000000815260040161291d906135d7565b60405180910390fd5b6000609760006101000a81548160ff021916908315150217905550565b600060019054906101000a900460ff16612992576040517f08c379a0000000000000000000000000000000000000000000000000000000008152600401612989906135d7565b60405180910390fd5b6129a261299d611677565b6122cd565b565b505050565b6129b281612771565b8073ffffffffffffffffffffffffffffffffffffffff167fbc7cd75a20ee27fd9adebab32041f755214dbc6bffa90cc0225b39da2e5c2d3b60405160405180910390a250565b6060612a0383611654565b612a42576040517f08c379a0000000000000000000000000000000000000000000000000000000008152600401612a3990613577565b60405180910390fd5b6000808473ffffffffffffffffffffffffffffffffffffffff1684604051612a6a919061320c565b600060405180830381855af49150503d8060008114612aa5576040519150601f19603f3d011682016040523d82523d6000602084013e612aaa565b606091505b5091509150612ad28282604051806060016040528060278152602001613fd460279139612adc565b9250505092915050565b60608315612aec57829050612b3c565b600083511115612aff5782518084602001fd5b816040517f08c379a0000000000000000000000000000000000000000000000000000000008152600401612b33919061328f565b60405180910390fd5b9392505050565b828054612b4f90613832565b90600052602060002090601f016020900481019282612b715760008555612bb8565b82601f10612b8a57805160ff1916838001178555612bb8565b82800160010185558215612bb8579182015b82811115612bb7578251825591602001919060010190612b9c565b5b509050612bc59190612bc9565b5090565b5b80821115612be2576000816000905550600101612bca565b5090565b6000612bf9612bf484613692565b61366d565b905082815260208101848484011115612c1157600080fd5b612c1c8482856137f0565b509392505050565b600081359050612c3381613f8e565b92915050565b600081519050612c4881613fa5565b92915050565b600082601f830112612c5f57600080fd5b8135612c6f848260208601612be6565b91505092915050565b600081359050612c8781613fbc565b92915050565b600060208284031215612c9f57600080fd5b6000612cad84828501612c24565b91505092915050565b60008060408385031215612cc957600080fd5b6000612cd785828601612c24565b9250506020612ce885828601612c24565b9150509250929050565b600080600060608486031215612d0757600080fd5b6000612d1586828701612c24565b9350506020612d2686828701612c24565b9250506040612d3786828701612c78565b9150509250925092565b60008060408385031215612d5457600080fd5b6000612d6285828601612c24565b925050602083013567ffffffffffffffff811115612d7f57600080fd5b612d8b85828601612c4e565b9150509250929050565b60008060408385031215612da857600080fd5b6000612db685828601612c24565b9250506020612dc785828601612c78565b9150509250929050565b600060208284031215612de357600080fd5b6000612df184828501612c39565b91505092915050565b600060208284031215612e0c57600080fd5b6000612e1a84828501612c78565b91505092915050565b612e2c8161377f565b82525050565b612e3b81613791565b82525050565b612e4a8161379d565b82525050565b6000612e5b826136c3565b612e6581856136d9565b9350612e758185602086016137ff565b80840191505092915050565b612e8a816137de565b82525050565b6000612e9b826136ce565b612ea581856136e4565b9350612eb58185602086016137ff565b612ebe81613922565b840191505092915050565b6000612ed66023836136e4565b9150612ee182613933565b604082019050919050565b6000612ef96014836136e4565b9150612f0482613982565b602082019050919050565b6000612f1c6022836136e4565b9150612f27826139ab565b604082019050919050565b6000612f3f6026836136e4565b9150612f4a826139fa565b604082019050919050565b6000612f626022836136e4565b9150612f6d82613a49565b604082019050919050565b6000612f85602c836136e4565b9150612f9082613a98565b604082019050919050565b6000612fa8601d836136e4565b9150612fb382613ae7565b602082019050919050565b6000612fcb6026836136e4565b9150612fd682613b10565b604082019050919050565b6000612fee602c836136e4565b9150612ff982613b5f565b604082019050919050565b60006130116038836136e4565b915061301c82613bae565b604082019050919050565b60006130346010836136e4565b915061303f82613bfd565b602082019050919050565b60006130576029836136e4565b915061306282613c26565b604082019050919050565b600061307a602e836136e4565b915061308582613c75565b604082019050919050565b600061309d602e836136e4565b91506130a882613cc4565b604082019050919050565b60006130c0602d836136e4565b91506130cb82613d13565b604082019050919050565b60006130e36020836136e4565b91506130ee82613d62565b602082019050919050565b60006131066021836136e4565b915061311182613d8b565b604082019050919050565b60006131296026836136e4565b915061313482613dda565b604082019050919050565b600061314c6025836136e4565b915061315782613e29565b604082019050919050565b600061316f6024836136e4565b915061317a82613e78565b604082019050919050565b6000613192602b836136e4565b915061319d82613ec7565b604082019050919050565b60006131b56025836136e4565b91506131c082613f16565b604082019050919050565b60006131d8601f836136e4565b91506131e382613f65565b602082019050919050565b6131f7816137c7565b82525050565b613206816137d1565b82525050565b60006132188284612e50565b915081905092915050565b60006020820190506132386000830184612e23565b92915050565b60006020820190506132536000830184612e32565b92915050565b600060208201905061326e6000830184612e41565b92915050565b60006020820190506132896000830184612e81565b92915050565b600060208201905081810360008301526132a98184612e90565b905092915050565b600060808201905081810360008301526132cb8187612e90565b90506132da6020830186612e23565b81810360408301526132ec8185612e90565b90506132fb60608301846131ee565b95945050505050565b6000608082019050818103600083015261331e8187612e90565b905061332d60208301866131ee565b818103604083015261333f8185612e90565b905061334e6060830184612e23565b95945050505050565b6000602082019050818103600083015261337081612ec9565b9050919050565b6000602082019050818103600083015261339081612eec565b9050919050565b600060208201905081810360008301526133b081612f0f565b9050919050565b600060208201905081810360008301526133d081612f32565b9050919050565b600060208201905081810360008301526133f081612f55565b9050919050565b6000602082019050818103600083015261341081612f78565b9050919050565b6000602082019050818103600083015261343081612f9b565b9050919050565b6000602082019050818103600083015261345081612fbe565b9050919050565b6000602082019050818103600083015261347081612fe1565b9050919050565b6000602082019050818103600083015261349081613004565b9050919050565b600060208201905081810360008301526134b081613027565b9050919050565b600060208201905081810360008301526134d08161304a565b9050919050565b600060208201905081810360008301526134f08161306d565b9050919050565b6000602082019050818103600083015261351081613090565b9050919050565b60006020820190508181036000830152613530816130b3565b9050919050565b60006020820190508181036000830152613550816130d6565b9050919050565b60006020820190508181036000830152613570816130f9565b9050919050565b600060208201905081810360008301526135908161311c565b9050919050565b600060208201905081810360008301526135b08161313f565b9050919050565b600060208201905081810360008301526135d081613162565b9050919050565b600060208201905081810360008301526135f081613185565b9050919050565b60006020820190508181036000830152613610816131a8565b9050919050565b60006020820190508181036000830152613630816131cb565b9050919050565b600060208201905061364c60008301846131ee565b92915050565b600060208201905061366760008301846131fd565b92915050565b6000613677613688565b90506136838282613864565b919050565b6000604051905090565b600067ffffffffffffffff8211156136ad576136ac6138f3565b5b6136b682613922565b9050602081019050919050565b600081519050919050565b600081519050919050565b600081905092915050565b600082825260208201905092915050565b6000613700826137c7565b915061370b836137c7565b9250827fffffffffffffffffffffffffffffffffffffffffffffffffffffffffffffffff038211156137405761373f613895565b5b828201905092915050565b6000613756826137c7565b9150613761836137c7565b92508282101561377457613773613895565b5b828203905092915050565b600061378a826137a7565b9050919050565b60008115159050919050565b6000819050919050565b600073ffffffffffffffffffffffffffffffffffffffff82169050919050565b6000819050919050565b600060ff82169050919050565b60006137e9826137d1565b9050919050565b82818337600083830152505050565b60005b8381101561381d578082015181840152602081019050613802565b8381111561382c576000848401525b50505050565b6000600282049050600182168061384a57607f821691505b6020821081141561385e5761385d6138c4565b5b50919050565b61386d82613922565b810181811067ffffffffffffffff8211171561388c5761388b6138f3565b5b80604052505050565b7f4e487b7100000000000000000000000000000000000000000000000000000000600052601160045260246000fd5b7f4e487b7100000000000000000000000000000000000000000000000000000000600052602260045260246000fd5b7f4e487b7100000000000000000000000000000000000000000000000000000000600052604160045260246000fd5b6000601f19601f8301169050919050565b7f45524332303a207472616e7366657220746f20746865207a65726f206164647260008201527f6573730000000000000000000000000000000000000000000000000000000000602082015250565b7f5061757361626c653a206e6f7420706175736564000000000000000000000000600082015250565b7f45524332303a206275726e20616d6f756e7420657863656564732062616c616e60008201527f6365000000000000000000000000000000000000000000000000000000000000602082015250565b7f4f776e61626c653a206e6577206f776e657220697320746865207a65726f206160008201527f6464726573730000000000000000000000000000000000000000000000000000602082015250565b7f45524332303a20617070726f766520746f20746865207a65726f20616464726560008201527f7373000000000000000000000000000000000000000000000000000000000000602082015250565b7f46756e6374696f6e206d7573742062652063616c6c6564207468726f7567682060008201527f64656c656761746563616c6c0000000000000000000000000000000000000000602082015250565b7f45524332303a20696e73756666696369656e7420616c6c6f77616e6365000000600082015250565b7f45524332303a207472616e7366657220616d6f756e742065786365656473206260008201527f616c616e63650000000000000000000000000000000000000000000000000000602082015250565b7f46756e6374696f6e206d7573742062652063616c6c6564207468726f7567682060008201527f6163746976652070726f78790000000000000000000000000000000000000000602082015250565b7f555550535570677261646561626c653a206d757374206e6f742062652063616c60008201527f6c6564207468726f7567682064656c656761746563616c6c0000000000000000602082015250565b7f5061757361626c653a2070617573656400000000000000000000000000000000600082015250565b7f45524331393637557067726164653a20756e737570706f727465642070726f7860008201527f6961626c65555549440000000000000000000000000000000000000000000000602082015250565b7f496e697469616c697a61626c653a20636f6e747261637420697320616c72656160008201527f647920696e697469616c697a6564000000000000000000000000000000000000602082015250565b7f45524331393637557067726164653a206e657720696d706c656d656e7461746960008201527f6f6e206973206e6f742055555053000000000000000000000000000000000000602082015250565b7f455243313936373a206e657720696d706c656d656e746174696f6e206973206e60008201527f6f74206120636f6e747261637400000000000000000000000000000000000000602082015250565b7f4f776e61626c653a2063616c6c6572206973206e6f7420746865206f776e6572600082015250565b7f45524332303a206275726e2066726f6d20746865207a65726f2061646472657360008201527f7300000000000000000000000000000000000000000000000000000000000000602082015250565b7f416464726573733a2064656c65676174652063616c6c20746f206e6f6e2d636f60008201527f6e74726163740000000000000000000000000000000000000000000000000000602082015250565b7f45524332303a207472616e736665722066726f6d20746865207a65726f20616460008201527f6472657373000000000000000000000000000000000000000000000000000000602082015250565b7f45524332303a20617070726f76652066726f6d20746865207a65726f2061646460008201527f7265737300000000000000000000000000000000000000000000000000000000602082015250565b7f496e697469616c697a61626c653a20636f6e7472616374206973206e6f74206960008201527f6e697469616c697a696e67000000000000000000000000000000000000000000602082015250565b7f45524332303a2064656372656173656420616c6c6f77616e63652062656c6f7760008201527f207a65726f000000000000000000000000000000000000000000000000000000602082015250565b7f45524332303a206d696e7420746f20746865207a65726f206164647265737300600082015250565b613f978161377f565b8114613fa257600080fd5b50565b613fae8161379d565b8114613fb957600080fd5b50565b613fc5816137c7565b8114613fd057600080fd5b5056fe416464726573733a206c6f772d6c6576656c2064656c65676174652063616c6c206661696c6564a264697066735822122089277ab8ab749bebb4c7a23c852a098cf1b8048ed7fad0644b5be6f32eb55f4b64736f6c63430008040033",
  "linkReferences": {},
  "deployedLinkReferences": {}
}